{
  "fileName": "MeetupGroups.sol",
  "contractName": "MeetupGroup",
  "source": "pragma solidity ^0.5.0;\n\nimport '@openzeppelin/upgrades/contracts/Initializable.sol';\nimport '@openzeppelin/contracts-ethereum-package/contracts/ownership/Ownable.sol';\nimport '@openzeppelin/contracts-ethereum-package/contracts/math/SafeMath.sol';\n\n\nlibrary MeetupLib {\n  enum MeetupStatus {Scheduled, Past, Canceled}\n  enum AttendeeStatus {Rsvp, NonRsvp}\n}\n\n\ncontract Meetup is Ownable {\n  uint256 timestamp;\n  string name;\n  bytes public cid;\n  mapping(address => MeetupLib.AttendeeStatus) attendees;\n  MeetupLib.MeetupStatus state;\n\n  //todo waitlist ...\n\n  function initialize(address owner) public initializer {\n    Ownable.initialize(owner);\n    state = MeetupLib.MeetupStatus.Scheduled;\n  }\n\n  function setTimestamp(uint256 _timestamp) public onlyOwner {\n    timestamp = _timestamp;\n  }\n\n  function rsvp() public {\n    attendees[msg.sender] = MeetupLib.AttendeeStatus.Rsvp;\n  }\n\n  function unRsvp() public {\n    attendees[msg.sender] = MeetupLib.AttendeeStatus.NonRsvp;\n  }\n\n  function cancel() public onlyOwner {\n    state = MeetupLib.MeetupStatus.Canceled;\n  }\n}\n\n\ncontract MeetupGroup is Initializable, Ownable {\n  string public name;\n  bytes public cid;\n  string public meetupComId;\n\n  mapping(uint256 => Meetup) meetups;\n\n  function initialize(address owner) public initializer {\n    Ownable.initialize(owner);\n  }\n\n  function updateContent(bytes memory _cid) public onlyOwner {\n    cid = _cid;\n  }\n\n  function setMeetupComId(string memory mcId) public onlyOwner {\n    meetupComId = mcId;\n  }\n\n  function setCid(bytes memory _cid) public onlyOwner {\n    cid = _cid;\n  }\n\n  function schedule(uint256 _timestamp)\n    public\n    onlyOwner\n    returns (Meetup meetup)\n  {\n    Meetup _meetup = new Meetup();\n    _meetup.initialize(owner());\n    _meetup.setTimestamp(_timestamp);\n\n    return _meetup;\n  }\n}\n\n\ncontract MeetupGroups is Initializable, Ownable {\n  event MeetupGroupCreated(\n    address indexed creator,\n    address group,\n    string indexed name\n  );\n\n  MeetupGroup[] public groups;\n\n  function initialize() public initializer {\n    Ownable.initialize(msg.sender);\n  }\n\n  function getGroups() public view returns (MeetupGroup[] memory allGroups) {\n    return groups;\n  }\n\n  function createMeetupGroup(string memory name)\n    public\n    returns (MeetupGroup group)\n  {\n    MeetupGroup _group = new MeetupGroup();\n    _group.initialize(msg.sender);\n    groups.push(_group);\n\n    emit MeetupGroupCreated(msg.sender, address(_group), name);\n    return _group;\n  }\n}\n",
  "sourcePath": "contracts/MeetupGroups.sol",
  "abi": [
    {
      "anonymous": false,
      "inputs": [
        {
          "indexed": true,
          "internalType": "address",
          "name": "previousOwner",
          "type": "address"
        },
        {
          "indexed": true,
          "internalType": "address",
          "name": "newOwner",
          "type": "address"
        }
      ],
      "name": "OwnershipTransferred",
      "type": "event"
    },
    {
      "constant": true,
      "inputs": [],
      "name": "cid",
      "outputs": [
        {
          "internalType": "bytes",
          "name": "",
          "type": "bytes"
        }
      ],
      "payable": false,
      "stateMutability": "view",
      "type": "function"
    },
    {
      "constant": false,
      "inputs": [
        {
          "internalType": "address",
          "name": "owner",
          "type": "address"
        }
      ],
      "name": "initialize",
      "outputs": [],
      "payable": false,
      "stateMutability": "nonpayable",
      "type": "function"
    },
    {
      "constant": true,
      "inputs": [],
      "name": "isOwner",
      "outputs": [
        {
          "internalType": "bool",
          "name": "",
          "type": "bool"
        }
      ],
      "payable": false,
      "stateMutability": "view",
      "type": "function"
    },
    {
      "constant": true,
      "inputs": [],
      "name": "meetupComId",
      "outputs": [
        {
          "internalType": "string",
          "name": "",
          "type": "string"
        }
      ],
      "payable": false,
      "stateMutability": "view",
      "type": "function"
    },
    {
      "constant": true,
      "inputs": [],
      "name": "name",
      "outputs": [
        {
          "internalType": "string",
          "name": "",
          "type": "string"
        }
      ],
      "payable": false,
      "stateMutability": "view",
      "type": "function"
    },
    {
      "constant": true,
      "inputs": [],
      "name": "owner",
      "outputs": [
        {
          "internalType": "address",
          "name": "",
          "type": "address"
        }
      ],
      "payable": false,
      "stateMutability": "view",
      "type": "function"
    },
    {
      "constant": false,
      "inputs": [],
      "name": "renounceOwnership",
      "outputs": [],
      "payable": false,
      "stateMutability": "nonpayable",
      "type": "function"
    },
    {
      "constant": false,
      "inputs": [
        {
          "internalType": "uint256",
          "name": "_timestamp",
          "type": "uint256"
        }
      ],
      "name": "schedule",
      "outputs": [
        {
          "internalType": "contract Meetup",
          "name": "meetup",
          "type": "address"
        }
      ],
      "payable": false,
      "stateMutability": "nonpayable",
      "type": "function"
    },
    {
      "constant": false,
      "inputs": [
        {
          "internalType": "bytes",
          "name": "_cid",
          "type": "bytes"
        }
      ],
      "name": "setCid",
      "outputs": [],
      "payable": false,
      "stateMutability": "nonpayable",
      "type": "function"
    },
    {
      "constant": false,
      "inputs": [
        {
          "internalType": "string",
          "name": "mcId",
          "type": "string"
        }
      ],
      "name": "setMeetupComId",
      "outputs": [],
      "payable": false,
      "stateMutability": "nonpayable",
      "type": "function"
    },
    {
      "constant": false,
      "inputs": [
        {
          "internalType": "address",
          "name": "newOwner",
          "type": "address"
        }
      ],
      "name": "transferOwnership",
      "outputs": [],
      "payable": false,
      "stateMutability": "nonpayable",
      "type": "function"
    },
    {
      "constant": false,
      "inputs": [
        {
          "internalType": "bytes",
          "name": "_cid",
          "type": "bytes"
        }
      ],
      "name": "updateContent",
      "outputs": [],
      "payable": false,
      "stateMutability": "nonpayable",
      "type": "function"
    }
  ],
  "bytecode": "0x6080604052611f8f806100136000396000f3fe608060405234801561001057600080fd5b50600436106100b45760003560e01c8063aa3ec0a911610071578063aa3ec0a9146102db578063b2d51b431461035e578063b34c3759146103e1578063c260518f1461049c578063c4d66de814610557578063f2fde38b1461059b576100b4565b806306fdde03146100b95780636fbfd4091461013c578063715018a6146101aa578063807ffe3d146101b45780638da5cb5b1461026f5780638f32d59b146102b9575b600080fd5b6100c16105df565b6040518080602001828103825283818151815260200191508051906020019080838360005b838110156101015780820151818401526020810190506100e6565b50505050905090810190601f16801561012e5780820380516001836020036101000a031916815260200191505b509250505060405180910390f35b6101686004803603602081101561015257600080fd5b810190808035906020019092919050505061067d565b604051808273ffffffffffffffffffffffffffffffffffffffff1673ffffffffffffffffffffffffffffffffffffffff16815260200191505060405180910390f35b6101b2610838565b005b61026d600480360360208110156101ca57600080fd5b81019080803590602001906401000000008111156101e757600080fd5b8201836020820111156101f957600080fd5b8035906020019184600183028401116401000000008311171561021b57600080fd5b91908080601f016020809104026020016040519081016040528093929190818152602001838380828437600081840152601f19601f820116905080830192505050505050509192919290505050610973565b005b610277610a07565b604051808273ffffffffffffffffffffffffffffffffffffffff1673ffffffffffffffffffffffffffffffffffffffff16815260200191505060405180910390f35b6102c1610a31565b604051808215151515815260200191505060405180910390f35b6102e3610a90565b6040518080602001828103825283818151815260200191508051906020019080838360005b83811015610323578082015181840152602081019050610308565b50505050905090810190601f1680156103505780820380516001836020036101000a031916815260200191505b509250505060405180910390f35b610366610b2e565b6040518080602001828103825283818151815260200191508051906020019080838360005b838110156103a657808201518184015260208101905061038b565b50505050905090810190601f1680156103d35780820380516001836020036101000a031916815260200191505b509250505060405180910390f35b61049a600480360360208110156103f757600080fd5b810190808035906020019064010000000081111561041457600080fd5b82018360208201111561042657600080fd5b8035906020019184600183028401116401000000008311171561044857600080fd5b91908080601f016020809104026020016040519081016040528093929190818152602001838380828437600081840152601f19601f820116905080830192505050505050509192919290505050610bcc565b005b610555600480360360208110156104b257600080fd5b81019080803590602001906401000000008111156104cf57600080fd5b8201836020820111156104e157600080fd5b8035906020019184600183028401116401000000008311171561050357600080fd5b91908080601f016020809104026020016040519081016040528093929190818152602001838380828437600081840152601f19601f820116905080830192505050505050509192919290505050610c60565b005b6105996004803603602081101561056d57600080fd5b81019080803573ffffffffffffffffffffffffffffffffffffffff169060200190929190505050610cf4565b005b6105dd600480360360208110156105b157600080fd5b81019080803573ffffffffffffffffffffffffffffffffffffffff169060200190929190505050610dfd565b005b60668054600181600116156101000203166002900480601f0160208091040260200160405190810160405280929190818152602001828054600181600116156101000203166002900480156106755780601f1061064a57610100808354040283529160200191610675565b820191906000526020600020905b81548152906001019060200180831161065857829003601f168201915b505050505081565b6000610687610a31565b6106f9576040517f08c379a00000000000000000000000000000000000000000000000000000000081526004018080602001828103825260208152602001807f4f776e61626c653a2063616c6c6572206973206e6f7420746865206f776e657281525060200191505060405180910390fd5b6000604051610707906111a6565b604051809103906000f080158015610723573d6000803e3d6000fd5b5090508073ffffffffffffffffffffffffffffffffffffffff1663c4d66de861074a610a07565b6040518263ffffffff1660e01b8152600401808273ffffffffffffffffffffffffffffffffffffffff1673ffffffffffffffffffffffffffffffffffffffff168152602001915050600060405180830381600087803b1580156107ac57600080fd5b505af11580156107c0573d6000803e3d6000fd5b505050508073ffffffffffffffffffffffffffffffffffffffff1663a0a2b573846040518263ffffffff1660e01b815260040180828152602001915050600060405180830381600087803b15801561081757600080fd5b505af115801561082b573d6000803e3d6000fd5b5050505080915050919050565b610840610a31565b6108b2576040517f08c379a00000000000000000000000000000000000000000000000000000000081526004018080602001828103825260208152602001807f4f776e61626c653a2063616c6c6572206973206e6f7420746865206f776e657281525060200191505060405180910390fd5b600073ffffffffffffffffffffffffffffffffffffffff16603360009054906101000a900473ffffffffffffffffffffffffffffffffffffffff1673ffffffffffffffffffffffffffffffffffffffff167f8be0079c531659141344cd1fd0a4f28419497f9722a3daafe3b4186f6b6457e060405160405180910390a36000603360006101000a81548173ffffffffffffffffffffffffffffffffffffffff021916908373ffffffffffffffffffffffffffffffffffffffff160217905550565b61097b610a31565b6109ed576040517f08c379a00000000000000000000000000000000000000000000000000000000081526004018080602001828103825260208152602001807f4f776e61626c653a2063616c6c6572206973206e6f7420746865206f776e657281525060200191505060405180910390fd5b8060689080519060200190610a039291906111b3565b5050565b6000603360009054906101000a900473ffffffffffffffffffffffffffffffffffffffff16905090565b6000603360009054906101000a900473ffffffffffffffffffffffffffffffffffffffff1673ffffffffffffffffffffffffffffffffffffffff16610a74610e83565b73ffffffffffffffffffffffffffffffffffffffff1614905090565b60678054600181600116156101000203166002900480601f016020809104026020016040519081016040528092919081815260200182805460018160011615610100020316600290048015610b265780601f10610afb57610100808354040283529160200191610b26565b820191906000526020600020905b815481529060010190602001808311610b0957829003601f168201915b505050505081565b60688054600181600116156101000203166002900480601f016020809104026020016040519081016040528092919081815260200182805460018160011615610100020316600290048015610bc45780601f10610b9957610100808354040283529160200191610bc4565b820191906000526020600020905b815481529060010190602001808311610ba757829003601f168201915b505050505081565b610bd4610a31565b610c46576040517f08c379a00000000000000000000000000000000000000000000000000000000081526004018080602001828103825260208152602001807f4f776e61626c653a2063616c6c6572206973206e6f7420746865206f776e657281525060200191505060405180910390fd5b8060679080519060200190610c5c929190611233565b5050565b610c68610a31565b610cda576040517f08c379a00000000000000000000000000000000000000000000000000000000081526004018080602001828103825260208152602001807f4f776e61626c653a2063616c6c6572206973206e6f7420746865206f776e657281525060200191505060405180910390fd5b8060679080519060200190610cf0929190611233565b5050565b600060019054906101000a900460ff1680610d135750610d12610e8b565b5b80610d2a57506000809054906101000a900460ff16155b610d7f576040517f08c379a000000000000000000000000000000000000000000000000000000000815260040180806020018281038252602e815260200180611f2d602e913960400191505060405180910390fd5b60008060019054906101000a900460ff161590508015610dcf576001600060016101000a81548160ff02191690831515021790555060016000806101000a81548160ff0219169083151502179055505b610dd882610ea2565b8015610df95760008060016101000a81548160ff0219169083151502179055505b5050565b610e05610a31565b610e77576040517f08c379a00000000000000000000000000000000000000000000000000000000081526004018080602001828103825260208152602001807f4f776e61626c653a2063616c6c6572206973206e6f7420746865206f776e657281525060200191505060405180910390fd5b610e8081611060565b50565b600033905090565b6000803090506000813b9050600081149250505090565b600060019054906101000a900460ff1680610ec15750610ec0610e8b565b5b80610ed857506000809054906101000a900460ff16155b610f2d576040517f08c379a000000000000000000000000000000000000000000000000000000000815260040180806020018281038252602e815260200180611f2d602e913960400191505060405180910390fd5b60008060019054906101000a900460ff161590508015610f7d576001600060016101000a81548160ff02191690831515021790555060016000806101000a81548160ff0219169083151502179055505b81603360006101000a81548173ffffffffffffffffffffffffffffffffffffffff021916908373ffffffffffffffffffffffffffffffffffffffff160217905550603360009054906101000a900473ffffffffffffffffffffffffffffffffffffffff1673ffffffffffffffffffffffffffffffffffffffff16600073ffffffffffffffffffffffffffffffffffffffff167f8be0079c531659141344cd1fd0a4f28419497f9722a3daafe3b4186f6b6457e060405160405180910390a3801561105c5760008060016101000a81548160ff0219169083151502179055505b5050565b600073ffffffffffffffffffffffffffffffffffffffff168173ffffffffffffffffffffffffffffffffffffffff1614156110e6576040517f08c379a0000000000000000000000000000000000000000000000000000000008152600401808060200182810382526026815260200180611f076026913960400191505060405180910390fd5b8073ffffffffffffffffffffffffffffffffffffffff16603360009054906101000a900473ffffffffffffffffffffffffffffffffffffffff1673ffffffffffffffffffffffffffffffffffffffff167f8be0079c531659141344cd1fd0a4f28419497f9722a3daafe3b4186f6b6457e060405160405180910390a380603360006101000a81548173ffffffffffffffffffffffffffffffffffffffff021916908373ffffffffffffffffffffffffffffffffffffffff16021790555050565b610c2e806112d983390190565b828054600181600116156101000203166002900490600052602060002090601f016020900481019282601f106111f457805160ff1916838001178555611222565b82800160010185558215611222579182015b82811115611221578251825591602001919060010190611206565b5b50905061122f91906112b3565b5090565b828054600181600116156101000203166002900490600052602060002090601f016020900481019282601f1061127457805160ff19168380011785556112a2565b828001600101855582156112a2579182015b828111156112a1578251825591602001919060010190611286565b5b5090506112af91906112b3565b5090565b6112d591905b808211156112d15760008160009055506001016112b9565b5090565b9056fe6080604052610c1b806100136000396000f3fe608060405234801561001057600080fd5b506004361061009e5760003560e01c8063aa3ec0a911610066578063aa3ec0a914610151578063c37e62d3146101d4578063c4d66de8146101de578063ea8a1af014610222578063f2fde38b1461022c5761009e565b8063228a5927146100a3578063715018a6146100ad5780638da5cb5b146100b75780638f32d59b14610101578063a0a2b57314610123575b600080fd5b6100ab610270565b005b6100b56102d3565b005b6100bf61040e565b604051808273ffffffffffffffffffffffffffffffffffffffff1673ffffffffffffffffffffffffffffffffffffffff16815260200191505060405180910390f35b610109610438565b604051808215151515815260200191505060405180910390f35b61014f6004803603602081101561013957600080fd5b8101908080359060200190929190505050610497565b005b61015961051b565b6040518080602001828103825283818151815260200191508051906020019080838360005b8381101561019957808201518184015260208101905061017e565b50505050905090810190601f1680156101c65780820380516001836020036101000a031916815260200191505b509250505060405180910390f35b6101dc6105b9565b005b610220600480360360208110156101f457600080fd5b81019080803573ffffffffffffffffffffffffffffffffffffffff16906020019092919050505061061c565b005b61022a610749565b005b61026e6004803603602081101561024257600080fd5b81019080803573ffffffffffffffffffffffffffffffffffffffff1690602001909291905050506107e9565b005b6000606960003373ffffffffffffffffffffffffffffffffffffffff1673ffffffffffffffffffffffffffffffffffffffff16815260200190815260200160002060006101000a81548160ff021916908360018111156102cc57fe5b0217905550565b6102db610438565b61034d576040517f08c379a00000000000000000000000000000000000000000000000000000000081526004018080602001828103825260208152602001807f4f776e61626c653a2063616c6c6572206973206e6f7420746865206f776e657281525060200191505060405180910390fd5b600073ffffffffffffffffffffffffffffffffffffffff16603360009054906101000a900473ffffffffffffffffffffffffffffffffffffffff1673ffffffffffffffffffffffffffffffffffffffff167f8be0079c531659141344cd1fd0a4f28419497f9722a3daafe3b4186f6b6457e060405160405180910390a36000603360006101000a81548173ffffffffffffffffffffffffffffffffffffffff021916908373ffffffffffffffffffffffffffffffffffffffff160217905550565b6000603360009054906101000a900473ffffffffffffffffffffffffffffffffffffffff16905090565b6000603360009054906101000a900473ffffffffffffffffffffffffffffffffffffffff1673ffffffffffffffffffffffffffffffffffffffff1661047b61086f565b73ffffffffffffffffffffffffffffffffffffffff1614905090565b61049f610438565b610511576040517f08c379a00000000000000000000000000000000000000000000000000000000081526004018080602001828103825260208152602001807f4f776e61626c653a2063616c6c6572206973206e6f7420746865206f776e657281525060200191505060405180910390fd5b8060668190555050565b60688054600181600116156101000203166002900480601f0160208091040260200160405190810160405280929190818152602001828054600181600116156101000203166002900480156105b15780601f10610586576101008083540402835291602001916105b1565b820191906000526020600020905b81548152906001019060200180831161059457829003601f168201915b505050505081565b6001606960003373ffffffffffffffffffffffffffffffffffffffff1673ffffffffffffffffffffffffffffffffffffffff16815260200190815260200160002060006101000a81548160ff0219169083600181111561061557fe5b0217905550565b600060019054906101000a900460ff168061063b575061063a610877565b5b8061065257506000809054906101000a900460ff16155b6106a7576040517f08c379a000000000000000000000000000000000000000000000000000000000815260040180806020018281038252602e815260200180610bb9602e913960400191505060405180910390fd5b60008060019054906101000a900460ff1615905080156106f7576001600060016101000a81548160ff02191690831515021790555060016000806101000a81548160ff0219169083151502179055505b6107008261088e565b6000606a60006101000a81548160ff0219169083600281111561071f57fe5b021790555080156107455760008060016101000a81548160ff0219169083151502179055505b5050565b610751610438565b6107c3576040517f08c379a00000000000000000000000000000000000000000000000000000000081526004018080602001828103825260208152602001807f4f776e61626c653a2063616c6c6572206973206e6f7420746865206f776e657281525060200191505060405180910390fd5b6002606a60006101000a81548160ff021916908360028111156107e257fe5b0217905550565b6107f1610438565b610863576040517f08c379a00000000000000000000000000000000000000000000000000000000081526004018080602001828103825260208152602001807f4f776e61626c653a2063616c6c6572206973206e6f7420746865206f776e657281525060200191505060405180910390fd5b61086c81610a4c565b50565b600033905090565b6000803090506000813b9050600081149250505090565b600060019054906101000a900460ff16806108ad57506108ac610877565b5b806108c457506000809054906101000a900460ff16155b610919576040517f08c379a000000000000000000000000000000000000000000000000000000000815260040180806020018281038252602e815260200180610bb9602e913960400191505060405180910390fd5b60008060019054906101000a900460ff161590508015610969576001600060016101000a81548160ff02191690831515021790555060016000806101000a81548160ff0219169083151502179055505b81603360006101000a81548173ffffffffffffffffffffffffffffffffffffffff021916908373ffffffffffffffffffffffffffffffffffffffff160217905550603360009054906101000a900473ffffffffffffffffffffffffffffffffffffffff1673ffffffffffffffffffffffffffffffffffffffff16600073ffffffffffffffffffffffffffffffffffffffff167f8be0079c531659141344cd1fd0a4f28419497f9722a3daafe3b4186f6b6457e060405160405180910390a38015610a485760008060016101000a81548160ff0219169083151502179055505b5050565b600073ffffffffffffffffffffffffffffffffffffffff168173ffffffffffffffffffffffffffffffffffffffff161415610ad2576040517f08c379a0000000000000000000000000000000000000000000000000000000008152600401808060200182810382526026815260200180610b936026913960400191505060405180910390fd5b8073ffffffffffffffffffffffffffffffffffffffff16603360009054906101000a900473ffffffffffffffffffffffffffffffffffffffff1673ffffffffffffffffffffffffffffffffffffffff167f8be0079c531659141344cd1fd0a4f28419497f9722a3daafe3b4186f6b6457e060405160405180910390a380603360006101000a81548173ffffffffffffffffffffffffffffffffffffffff021916908373ffffffffffffffffffffffffffffffffffffffff1602179055505056fe4f776e61626c653a206e6577206f776e657220697320746865207a65726f2061646472657373436f6e747261637420696e7374616e63652068617320616c7265616479206265656e20696e697469616c697a6564a265627a7a72315820eca729b9673d3dbd77b64e85626aeb2ad64f40a1e24261ce0f7238df5756cab364736f6c634300051100324f776e61626c653a206e6577206f776e657220697320746865207a65726f2061646472657373436f6e747261637420696e7374616e63652068617320616c7265616479206265656e20696e697469616c697a6564a265627a7a7231582053bd8e29914c0aeebfccb2eaed2cc37b2c888f6321967af1611293e3c164691264736f6c63430005110032",
  "compiler": {
    "name": "solc",
    "version": "0.5.17+commit.d19bba13.Emscripten.clang",
    "optimizer": {
      "enabled": false,
      "runs": 200
    },
    "evmVersion": "petersburg"
  }
}